{
  "_format": "hh-sol-artifact-1",
  "contractName": "BoardManager",
  "sourceName": "contracts/BoardManager.sol",
  "abi": [
    {
      "inputs": [
        {
          "internalType": "uint256",
          "name": "seed",
          "type": "uint256"
        }
      ],
      "stateMutability": "nonpayable",
      "type": "constructor"
    },
    {
      "inputs": [
        {
          "internalType": "uint256",
          "name": "drawing",
          "type": "uint256"
        }
      ],
      "name": "draw",
      "outputs": [],
      "stateMutability": "nonpayable",
      "type": "function"
    },
    {
      "inputs": [],
      "name": "finish",
      "outputs": [],
      "stateMutability": "nonpayable",
      "type": "function"
    },
    {
      "inputs": [
        {
          "internalType": "uint256",
          "name": "index",
          "type": "uint256"
        }
      ],
      "name": "getCanvas",
      "outputs": [
        {
          "internalType": "uint256",
          "name": "",
          "type": "uint256"
        }
      ],
      "stateMutability": "view",
      "type": "function"
    },
    {
      "inputs": [],
      "name": "getMyCanvasIndex",
      "outputs": [
        {
          "internalType": "uint256",
          "name": "",
          "type": "uint256"
        }
      ],
      "stateMutability": "view",
      "type": "function"
    },
    {
      "inputs": [],
      "name": "getMyNeighbors",
      "outputs": [
        {
          "internalType": "uint256[4]",
          "name": "",
          "type": "uint256[4]"
        }
      ],
      "stateMutability": "view",
      "type": "function"
    },
    {
      "inputs": [],
      "name": "reserveCanvas",
      "outputs": [],
      "stateMutability": "nonpayable",
      "type": "function"
    }
  ],
  "bytecode": "0x60806040526003805460ff1916905534801561001a57600080fd5b50604051610acf380380610acf833981016040819052610039916100ae565b60008052334260a01b177fad3228b676f7d3cd4284a5443f17f1962b36e491b30a40b2405849e597ba5fb555780400000000000000010000000000000004000000000000000160025560016020527fa6eef7e35abe7026729641147f7915573c7e97b47efa546f5f6e3230263bcb49556100c7565b6000602082840312156100c057600080fd5b5051919050565b6109f9806100d66000396000f3fe608060405234801561001057600080fd5b50600436106100725760003560e01c8063a811bbb311610050578063a811bbb3146100c7578063d56b2889146100cf578063dde25713146100d757600080fd5b80633b3041471461007757806345d7e4051461008c5780634d759e08146100bf575b600080fd5b61008a610085366004610840565b6100ec565b005b6100ac61009a366004610840565b60009081526001602052604090205490565b6040519081526020015b60405180910390f35b61008a61029c565b6100ac61039f565b61008a6103ae565b6100df610424565b6040516100b69190610859565b600060035460ff1660018111156101055761010561088a565b1460405180604001604052806015815260200174109bd85c99081b5d5cdd081899481cdd185c9d1959605a1b8152509061015b5760405162461bcd60e51b815260040161015291906108a0565b60405180910390fd5b50806101a95760405162461bcd60e51b815260206004820152601a60248201527f44726177696e672073686f756c646e277420626520656d7074790000000000006044820152606401610152565b60006101b36104ae565b600081815260016020526040902083905560025490915067ffffffffffffffff8116808314156102965767ffffffffffffffff604083901c811690608084901c1660c084901c5b600184810194930192600483029081830380820391141561021c575050610269565b600061022885836108f5565b1590508015610238576001860195505b61024360018461092d565b821415610251576001860195505b838711156102655760018501945082840193505b5050505b6000848152600160205260409020546101fa57604083901b8417608083901b1760c082901b176002555050505b50505050565b600060035460ff1660018111156102b5576102b561088a565b1460405180604001604052806015815260200174109bd85c99081b5d5cdd081899481cdd185c9d1959605a1b815250906103025760405162461bcd60e51b815260040161015291906108a0565b5060025467ffffffffffffffff80821690604083901c16815b8181116103535761032b81610570565b1561034b5760008181526020819052604090204260a01b33179055610296565b60010161031b565b50604080518082018252601781527f4d617820636f6e63757272656e637920726561636865640000000000000000006020820152905162461bcd60e51b815261015291906004016108a0565b60006103a96104ae565b905090565b600060035460ff1660018111156103c7576103c761088a565b1460405180604001604052806015815260200174109bd85c99081b5d5cdd081899481cdd185c9d1959605a1b815250906104145760405162461bcd60e51b815260040161015291906108a0565b506003805460ff19166001179055565b61042c610822565b600060035460ff1660018111156104455761044561088a565b1460405180604001604052806015815260200174109bd85c99081b5d5cdd081899481cdd185c9d1959605a1b815250906104925760405162461bcd60e51b815260040161015291906108a0565b50600061049d61039f565b90506104a8816105e9565b91505090565b60025460009067ffffffffffffffff80821690604083901c16815b8181116105245760008181526020819052604090205473ffffffffffffffffffffffffffffffffffffffff163314801561050f5750600081815260016020526040902054155b1561051c57949350505050565b6001016104c9565b50604080518082018252601581527f4e65656420746f207265736572766520666972737400000000000000000000006020820152905162461bcd60e51b815261015291906004016108a0565b6000818152602081905260408120548061058d5750600192915050565b600083815260016020526040902054156105aa5750600092915050565b64ffffffffff60a082901c16816105c08261080c565b806105e057503373ffffffffffffffffffffffffffffffffffffffff8216145b95945050505050565b6105f1610822565b6105f9610822565b826106045792915050565b8260015b610613816004610944565b82111561064357610625816004610944565b61062f908361092d565b91508061063b81610963565b915050610608565b8161064d8161097e565b92506000905061065d82846108f5565b905081600061066d826002610944565b9050600061067c856003610944565b905060008387106106aa578287106106a35781871061069c5760036106ad565b60026106ad565b60016106ad565b60005b60ff1690506000866001146106d7576106c760018861092d565b6106d2906004610944565b6106da565b60015b6106e4838d61092d565b6106ee919061092d565b9050600060046106ff846002610995565b61070991906108f5565b90508661073b576000828152600160205260409020548a8260048110610731576107316109ad565b60200201526107fc565b6000600161074a8a6004610944565b610754919061092d565b8a14905060016000610766828661092d565b8152602001908152602001600020548b60048460016107859190610995565b61078f91906108f5565b6004811061079f5761079f6109ad565b602002015260016000826107b45760006107ca565b6107bf60018c61092d565b6107ca906004610944565b6107d4908661092d565b8152602001908152602001600020548b83600481106107f5576107f56109ad565b6020020152505b50979a9950505050505050505050565b60004261081b61070884610995565b1092915050565b60405180608001604052806004906020820280368337509192915050565b60006020828403121561085257600080fd5b5035919050565b60808101818360005b6004811015610881578151835260209283019290910190600101610862565b50505092915050565b634e487b7160e01b600052602160045260246000fd5b600060208083528351808285015260005b818110156108cd578581018301518582016040015282016108b1565b818111156108df576000604083870101525b50601f01601f1916929092016040019392505050565b60008261091257634e487b7160e01b600052601260045260246000fd5b500690565b634e487b7160e01b600052601160045260246000fd5b60008282101561093f5761093f610917565b500390565b600081600019048311821515161561095e5761095e610917565b500290565b600060001982141561097757610977610917565b5060010190565b60008161098d5761098d610917565b506000190190565b600082198211156109a8576109a8610917565b500190565b634e487b7160e01b600052603260045260246000fdfea264697066735822122015deb2c22a3661e4058e44df4747fb80c0e02764eec7052fe4192f714b319edb64736f6c63430008090033",
  "linkReferences": {},
  "deployedLinkReferences": {}
}