{
  "_format": "hh-sol-artifact-1",
  "contractName": "BoardManager",
  "sourceName": "contracts/BoardManager.sol",
  "abi": [
    {
      "inputs": [
        {
          "internalType": "uint32",
          "name": "drawing",
          "type": "uint32"
        }
      ],
      "name": "draw",
      "outputs": [
        {
          "internalType": "uint32",
          "name": "",
          "type": "uint32"
        }
      ],
      "stateMutability": "nonpayable",
      "type": "function"
    },
    {
      "inputs": [],
      "name": "finish",
      "outputs": [
        {
          "internalType": "uint32",
          "name": "",
          "type": "uint32"
        }
      ],
      "stateMutability": "nonpayable",
      "type": "function"
    },
    {
      "inputs": [],
      "name": "getCanvas",
      "outputs": [
        {
          "internalType": "uint32[]",
          "name": "",
          "type": "uint32[]"
        }
      ],
      "stateMutability": "view",
      "type": "function"
    },
    {
      "inputs": [],
      "name": "start",
      "outputs": [
        {
          "internalType": "uint32",
          "name": "",
          "type": "uint32"
        }
      ],
      "stateMutability": "nonpayable",
      "type": "function"
    }
  ],
  "bytecode": "0x608060405260008060006101000a81548163ffffffff021916908363ffffffff1602179055506000600260006101000a81548160ff0219169083600281111561004b5761004a610062565b5b021790555034801561005c57600080fd5b50610091565b7f4e487b7100000000000000000000000000000000000000000000000000000000600052602160045260246000fd5b610adc806100a06000396000f3fe608060405234801561001057600080fd5b506004361061004c5760003560e01c806306a00d4314610051578063be9a65551461006f578063d56b28891461008d578063e6f36328146100ab575b600080fd5b6100596100db565b604051610066919061063d565b60405180910390f35b610077610305565b604051610084919061066e565b60405180910390f35b6100956103ae565b6040516100a2919061066e565b60405180910390f35b6100c560048036038101906100c091906106ba565b610457565b6040516100d2919061066e565b60405180910390f35b6060600160028111156100f1576100f06106e7565b5b600260009054906101000a900460ff166002811115610113576101126106e7565b5b14610153576040517f08c379a000000000000000000000000000000000000000000000000000000000815260040161014a90610799565b60405180910390fd5b6000600467ffffffffffffffff8111156101705761016f6107b9565b5b60405190808252806020026020018201604052801561019e5781602001602082028036833780820191505090505b509050600080600180549050116101c55760008054906101000a900463ffffffff1661020f565b60018080805490506101d79190610821565b815481106101e8576101e7610855565b5b90600052602060002090600891828204019190066004029054906101000a900463ffffffff165b905060008054906101000a900463ffffffff168260008151811061023657610235610855565b5b602002602001019063ffffffff16908163ffffffff168152505060008054906101000a900463ffffffff168260018151811061027557610274610855565b5b602002602001019063ffffffff16908163ffffffff168152505060008054906101000a900463ffffffff16826002815181106102b4576102b3610855565b5b602002602001019063ffffffff16908163ffffffff168152505080826003815181106102e3576102e2610855565b5b602002602001019063ffffffff16908163ffffffff1681525050819250505090565b600080600281111561031a576103196106e7565b5b600260009054906101000a900460ff16600281111561033c5761033b6106e7565b5b1461037c576040517f08c379a0000000000000000000000000000000000000000000000000000000008152600401610373906108f6565b60405180910390fd5b6001600260006101000a81548160ff021916908360028111156103a2576103a16106e7565b5b02179055506000905090565b6000600160028111156103c4576103c36106e7565b5b600260009054906101000a900460ff1660028111156103e6576103e56106e7565b5b14610426576040517f08c379a000000000000000000000000000000000000000000000000000000000815260040161041d90610988565b60405180910390fd5b60028060006101000a81548160ff0219169083600281111561044b5761044a6106e7565b5b02179055506000905090565b60006001600281111561046d5761046c6106e7565b5b600260009054906101000a900460ff16600281111561048f5761048e6106e7565b5b146104cf576040517f08c379a00000000000000000000000000000000000000000000000000000000081526004016104c690610a1a565b60405180910390fd5b60008263ffffffff1611610518576040517f08c379a000000000000000000000000000000000000000000000000000000000815260040161050f90610a86565b60405180910390fd5b60018290806001815401808255809150506001900390600052602060002090600891828204019190066004029091909190916101000a81548163ffffffff021916908363ffffffff16021790555060009050919050565b600081519050919050565b600082825260208201905092915050565b6000819050602082019050919050565b600063ffffffff82169050919050565b6105b48161059b565b82525050565b60006105c683836105ab565b60208301905092915050565b6000602082019050919050565b60006105ea8261056f565b6105f4818561057a565b93506105ff8361058b565b8060005b8381101561063057815161061788826105ba565b9750610622836105d2565b925050600181019050610603565b5085935050505092915050565b6000602082019050818103600083015261065781846105df565b905092915050565b6106688161059b565b82525050565b6000602082019050610683600083018461065f565b92915050565b600080fd5b6106978161059b565b81146106a257600080fd5b50565b6000813590506106b48161068e565b92915050565b6000602082840312156106d0576106cf610689565b5b60006106de848285016106a5565b91505092915050565b7f4e487b7100000000000000000000000000000000000000000000000000000000600052602160045260246000fd5b600082825260208201905092915050565b7f426f617264206d7573742062652073746172746564206265666f72652067657460008201527f74696e6720612063616e76617300000000000000000000000000000000000000602082015250565b6000610783602d83610716565b915061078e82610727565b604082019050919050565b600060208201905081810360008301526107b281610776565b9050919050565b7f4e487b7100000000000000000000000000000000000000000000000000000000600052604160045260246000fd5b6000819050919050565b7f4e487b7100000000000000000000000000000000000000000000000000000000600052601160045260246000fd5b600061082c826107e8565b9150610837836107e8565b92508282101561084a576108496107f2565b5b828203905092915050565b7f4e487b7100000000000000000000000000000000000000000000000000000000600052603260045260246000fd5b7f43616e277420737461727420616e20616c72656164792073746172746564206260008201527f6f61726400000000000000000000000000000000000000000000000000000000602082015250565b60006108e0602483610716565b91506108eb82610884565b604082019050919050565b6000602082019050818103600083015261090f816108d3565b9050919050565b7f426f617264206d757374206265207374617274656420696e206f72646572207460008201527f6f2062652066696e697368656400000000000000000000000000000000000000602082015250565b6000610972602d83610716565b915061097d82610916565b604082019050919050565b600060208201905081810360008301526109a181610965565b9050919050565b7f426f617264206d7573742062652073746172746564206265666f72652064726160008201527f77696e6700000000000000000000000000000000000000000000000000000000602082015250565b6000610a04602483610716565b9150610a0f826109a8565b604082019050919050565b60006020820190508181036000830152610a33816109f7565b9050919050565b7f44726177696e672073686f756c646e277420626520656d707479000000000000600082015250565b6000610a70601a83610716565b9150610a7b82610a3a565b602082019050919050565b60006020820190508181036000830152610a9f81610a63565b905091905056fea2646970667358221220bca98e50505f03666b4115a7e0ac690d637998d8b326df9457b5eaac132c0ec064736f6c63430008090033",
  "linkReferences": {},
  "deployedLinkReferences": {}
}